:020000020000FC
:1000000001C065C0F89430E8442736BD46BD41BD07
:1000100030E838B942E045BF33E137BB3FEF3DBD83
:100020003BBD92E30FEF23E010ED80E00ED023D034
:100030001FD0195183958730C9F730E43BBF50E199
:1000400058BB30E43ABF789422C031E83CBD3AE175
:1000500038BF09BD18BD30E4011718F03695369544
:1000600019BD32603ABD30E032BF23BF3CBD0895B8
:10007000332733BF08959EBD3EE030BF38B736FF0B
:10008000FDCF332730BF3FBD34E638BF089536B3C8
:1000900033FFFDCFC4980FE61FEF21E095E0F89401
:1000A000D4DFE9DFE5DF30E43ABF78949AE00FEF80
:1000B00023E01FE08FEF78E0C8DFDDDF170F8395C7
:1000C0008E30D1F7D5DF9AEFD6DFC49AE0CF332751
:1000D00033BF30BF3BBF3FEF38BF3FE53DBF32E0EE
:1000E0003EBFC4989DE20FEF23E014E188277727F5
:1000F00069E1ABDFC0DFBCDF160F83958730C9F73E
:100100007395882714E17330A1F79CED3327C49AC7
:10011000B2DFC498B0DFC49AAEDFC498ACDF86E02B
:08012000AADFA9DFA8DFF3CF7D
:00000001FF
